{
  "_format": "hh-sol-artifact-1",
  "contractName": "ReferralSystem",
  "sourceName": "contracts/Transaction.sol",
  "abi": [
    {
      "inputs": [],
      "name": "MINIMUM_BALANCE",
      "outputs": [
        {
          "internalType": "uint256",
          "name": "",
          "type": "uint256"
        }
      ],
      "stateMutability": "view",
      "type": "function"
    },
    {
      "inputs": [
        {
          "internalType": "string",
          "name": "",
          "type": "string"
        }
      ],
      "name": "referralToAddress",
      "outputs": [
        {
          "internalType": "address",
          "name": "",
          "type": "address"
        }
      ],
      "stateMutability": "view",
      "type": "function"
    },
    {
      "inputs": [
        {
          "internalType": "string",
          "name": "_referralId",
          "type": "string"
        },
        {
          "internalType": "string",
          "name": "_referrerId",
          "type": "string"
        }
      ],
      "name": "register",
      "outputs": [],
      "stateMutability": "nonpayable",
      "type": "function"
    },
    {
      "inputs": [
        {
          "internalType": "address",
          "name": "",
          "type": "address"
        }
      ],
      "name": "users",
      "outputs": [
        {
          "internalType": "address",
          "name": "wallet",
          "type": "address"
        },
        {
          "internalType": "string",
          "name": "referralId",
          "type": "string"
        },
        {
          "internalType": "address",
          "name": "referrer",
          "type": "address"
        },
        {
          "internalType": "bool",
          "name": "isRegistered",
          "type": "bool"
        }
      ],
      "stateMutability": "view",
      "type": "function"
    }
  ],
  "bytecode": "0x6080604052348015600f57600080fd5b50610f6b8061001f6000396000f3fe608060405234801561001057600080fd5b506004361061004c5760003560e01c80633ffbd47f1461005157806343c96d2f1461006d57806353498cdd1461009d578063a87430ba146100bb575b600080fd5b61006b600480360381019061006691906107d0565b6100ee565b005b61008760048036038101906100829190610848565b610522565b60405161009491906108d2565b60405180910390f35b6100a561056b565b6040516100b29190610906565b60405180910390f35b6100d560048036038101906100d0919061094d565b610571565b6040516100e59493929190610a14565b60405180910390f35b6000803373ffffffffffffffffffffffffffffffffffffffff1673ffffffffffffffffffffffffffffffffffffffff16815260200190815260200160002060020160149054906101000a900460ff161561017d576040517f08c379a000000000000000000000000000000000000000000000000000000000815260040161017490610aac565b60405180910390fd5b600073ffffffffffffffffffffffffffffffffffffffff166001826040516101a59190610b08565b908152602001604051809103902060009054906101000a900473ffffffffffffffffffffffffffffffffffffffff1673ffffffffffffffffffffffffffffffffffffffff160361022a576040517f08c379a000000000000000000000000000000000000000000000000000000000815260040161022190610b6b565b60405180910390fd5b6113883373ffffffffffffffffffffffffffffffffffffffff16311015610286576040517f08c379a000000000000000000000000000000000000000000000000000000000815260040161027d90610bd7565b60405180910390fd5b60405180608001604052803373ffffffffffffffffffffffffffffffffffffffff1681526020018381526020016001836040516102c39190610b08565b908152602001604051809103902060009054906101000a900473ffffffffffffffffffffffffffffffffffffffff1673ffffffffffffffffffffffffffffffffffffffff168152602001600115158152506000803373ffffffffffffffffffffffffffffffffffffffff1673ffffffffffffffffffffffffffffffffffffffff16815260200190815260200160002060008201518160000160006101000a81548173ffffffffffffffffffffffffffffffffffffffff021916908373ffffffffffffffffffffffffffffffffffffffff16021790555060208201518160010190816103ae9190610e03565b5060408201518160020160006101000a81548173ffffffffffffffffffffffffffffffffffffffff021916908373ffffffffffffffffffffffffffffffffffffffff16021790555060608201518160020160146101000a81548160ff0219169083151502179055509050503360018360405161042a9190610b08565b908152602001604051809103902060006101000a81548173ffffffffffffffffffffffffffffffffffffffff021916908373ffffffffffffffffffffffffffffffffffffffff1602179055506001816040516104869190610b08565b908152602001604051809103902060009054906101000a900473ffffffffffffffffffffffffffffffffffffffff1673ffffffffffffffffffffffffffffffffffffffff166108fc60053373ffffffffffffffffffffffffffffffffffffffff16316104f29190610f04565b9081150290604051600060405180830381858888f1935050505015801561051d573d6000803e3d6000fd5b505050565b6001818051602081018201805184825260208301602085012081835280955050505050506000915054906101000a900473ffffffffffffffffffffffffffffffffffffffff1681565b61138881565b60006020528060005260406000206000915090508060000160009054906101000a900473ffffffffffffffffffffffffffffffffffffffff16908060010180546105ba90610c26565b80601f01602080910402602001604051908101604052809291908181526020018280546105e690610c26565b80156106335780601f1061060857610100808354040283529160200191610633565b820191906000526020600020905b81548152906001019060200180831161061657829003601f168201915b5050505050908060020160009054906101000a900473ffffffffffffffffffffffffffffffffffffffff16908060020160149054906101000a900460ff16905084565b6000604051905090565b600080fd5b600080fd5b600080fd5b600080fd5b6000601f19601f8301169050919050565b7f4e487b7100000000000000000000000000000000000000000000000000000000600052604160045260246000fd5b6106dd82610694565b810181811067ffffffffffffffff821117156106fc576106fb6106a5565b5b80604052505050565b600061070f610676565b905061071b82826106d4565b919050565b600067ffffffffffffffff82111561073b5761073a6106a5565b5b61074482610694565b9050602081019050919050565b82818337600083830152505050565b600061077361076e84610720565b610705565b90508281526020810184848401111561078f5761078e61068f565b5b61079a848285610751565b509392505050565b600082601f8301126107b7576107b661068a565b5b81356107c7848260208601610760565b91505092915050565b600080604083850312156107e7576107e6610680565b5b600083013567ffffffffffffffff81111561080557610804610685565b5b610811858286016107a2565b925050602083013567ffffffffffffffff81111561083257610831610685565b5b61083e858286016107a2565b9150509250929050565b60006020828403121561085e5761085d610680565b5b600082013567ffffffffffffffff81111561087c5761087b610685565b5b610888848285016107a2565b91505092915050565b600073ffffffffffffffffffffffffffffffffffffffff82169050919050565b60006108bc82610891565b9050919050565b6108cc816108b1565b82525050565b60006020820190506108e760008301846108c3565b92915050565b6000819050919050565b610900816108ed565b82525050565b600060208201905061091b60008301846108f7565b92915050565b61092a816108b1565b811461093557600080fd5b50565b60008135905061094781610921565b92915050565b60006020828403121561096357610962610680565b5b600061097184828501610938565b91505092915050565b600081519050919050565b600082825260208201905092915050565b60005b838110156109b4578082015181840152602081019050610999565b60008484015250505050565b60006109cb8261097a565b6109d58185610985565b93506109e5818560208601610996565b6109ee81610694565b840191505092915050565b60008115159050919050565b610a0e816109f9565b82525050565b6000608082019050610a2960008301876108c3565b8181036020830152610a3b81866109c0565b9050610a4a60408301856108c3565b610a576060830184610a05565b95945050505050565b7f5573657220616c72656164792072656769737465726564000000000000000000600082015250565b6000610a96601783610985565b9150610aa182610a60565b602082019050919050565b60006020820190508181036000830152610ac581610a89565b9050919050565b600081905092915050565b6000610ae28261097a565b610aec8185610acc565b9350610afc818560208601610996565b80840191505092915050565b6000610b148284610ad7565b915081905092915050565b7f526566657272657220646f6573206e6f74206578697374000000000000000000600082015250565b6000610b55601783610985565b9150610b6082610b1f565b602082019050919050565b60006020820190508181036000830152610b8481610b48565b9050919050565b7f496e73756666696369656e742062616c616e6365000000000000000000000000600082015250565b6000610bc1601483610985565b9150610bcc82610b8b565b602082019050919050565b60006020820190508181036000830152610bf081610bb4565b9050919050565b7f4e487b7100000000000000000000000000000000000000000000000000000000600052602260045260246000fd5b60006002820490506001821680610c3e57607f821691505b602082108103610c5157610c50610bf7565b5b50919050565b60008190508160005260206000209050919050565b60006020601f8301049050919050565b600082821b905092915050565b600060088302610cb97fffffffffffffffffffffffffffffffffffffffffffffffffffffffffffffffff82610c7c565b610cc38683610c7c565b95508019841693508086168417925050509392505050565b6000819050919050565b6000610d00610cfb610cf6846108ed565b610cdb565b6108ed565b9050919050565b6000819050919050565b610d1a83610ce5565b610d2e610d2682610d07565b848454610c89565b825550505050565b600090565b610d43610d36565b610d4e818484610d11565b505050565b5b81811015610d7257610d67600082610d3b565b600181019050610d54565b5050565b601f821115610db757610d8881610c57565b610d9184610c6c565b81016020851015610da0578190505b610db4610dac85610c6c565b830182610d53565b50505b505050565b600082821c905092915050565b6000610dda60001984600802610dbc565b1980831691505092915050565b6000610df38383610dc9565b9150826002028217905092915050565b610e0c8261097a565b67ffffffffffffffff811115610e2557610e246106a5565b5b610e2f8254610c26565b610e3a828285610d76565b600060209050601f831160018114610e6d5760008415610e5b578287015190505b610e658582610de7565b865550610ecd565b601f198416610e7b86610c57565b60005b82811015610ea357848901518255600182019150602085019450602081019050610e7e565b86831015610ec05784890151610ebc601f891682610dc9565b8355505b6001600288020188555050505b505050505050565b7f4e487b7100000000000000000000000000000000000000000000000000000000600052601260045260246000fd5b6000610f0f826108ed565b9150610f1a836108ed565b925082610f2a57610f29610ed5565b5b82820490509291505056fea264697066735822122070aa77d409b455ad4d0ae135b2891bf025aeb5c716da2380594aaff87142d0c264736f6c634300081b0033",
  "linkReferences": {},
  "deployedLinkReferences": {}
}